{"abi":[{"type":"function","name":"createEscrow","inputs":[{"name":"seller","type":"address","internalType":"address"},{"name":"arbiter","type":"address","internalType":"address"},{"name":"amount","type":"uint256","internalType":"uint256"},{"name":"deadline","type":"uint256","internalType":"uint256"},{"name":"description","type":"string","internalType":"string"}],"outputs":[{"name":"escrowId","type":"uint256","internalType":"uint256"}],"stateMutability":"nonpayable"},{"type":"function","name":"escrows","inputs":[{"name":"","type":"uint256","internalType":"uint256"}],"outputs":[{"name":"buyer","type":"address","internalType":"address"},{"name":"seller","type":"address","internalType":"address"},{"name":"arbiter","type":"address","internalType":"address"},{"name":"amount","type":"uint256","internalType":"uint256"},{"name":"deadline","type":"uint256","internalType":"uint256"},{"name":"description","type":"string","internalType":"string"},{"name":"funded","type":"bool","internalType":"bool"},{"name":"released","type":"bool","internalType":"bool"},{"name":"refunded","type":"bool","internalType":"bool"}],"stateMutability":"view"},{"type":"function","name":"fundEscrow","inputs":[{"name":"escrowId","type":"uint256","internalType":"uint256"}],"outputs":[],"stateMutability":"payable"},{"type":"function","name":"getEscrowDetails","inputs":[{"name":"escrowId","type":"uint256","internalType":"uint256"}],"outputs":[{"name":"","type":"tuple","internalType":"struct DecentralizedEscrow.EscrowDetails","components":[{"name":"buyer","type":"address","internalType":"address"},{"name":"seller","type":"address","internalType":"address"},{"name":"arbiter","type":"address","internalType":"address"},{"name":"amount","type":"uint256","internalType":"uint256"},{"name":"deadline","type":"uint256","internalType":"uint256"},{"name":"description","type":"string","internalType":"string"},{"name":"funded","type":"bool","internalType":"bool"},{"name":"released","type":"bool","internalType":"bool"},{"name":"refunded","type":"bool","internalType":"bool"}]}],"stateMutability":"view"},{"type":"function","name":"releaseFunds","inputs":[{"name":"escrowId","type":"uint256","internalType":"uint256"}],"outputs":[],"stateMutability":"nonpayable"},{"type":"function","name":"requestRefund","inputs":[{"name":"escrowId","type":"uint256","internalType":"uint256"}],"outputs":[],"stateMutability":"nonpayable"},{"type":"function","name":"resolveDispute","inputs":[{"name":"escrowId","type":"uint256","internalType":"uint256"},{"name":"releaseFundsToSeller","type":"bool","internalType":"bool"}],"outputs":[],"stateMutability":"nonpayable"},{"type":"event","name":"DisputeResolved","inputs":[{"name":"escrowId","type":"uint256","indexed":true,"internalType":"uint256"},{"name":"fundsReleased","type":"bool","indexed":false,"internalType":"bool"},{"name":"byArbiter","type":"address","indexed":true,"internalType":"address"}],"anonymous":false},{"type":"event","name":"EscrowCreated","inputs":[{"name":"escrowId","type":"uint256","indexed":true,"internalType":"uint256"},{"name":"buyer","type":"address","indexed":true,"internalType":"address"},{"name":"seller","type":"address","indexed":true,"internalType":"address"},{"name":"arbiter","type":"address","indexed":false,"internalType":"address"},{"name":"amount","type":"uint256","indexed":false,"internalType":"uint256"},{"name":"deadline","type":"uint256","indexed":false,"internalType":"uint256"},{"name":"description","type":"string","indexed":false,"internalType":"string"}],"anonymous":false},{"type":"event","name":"EscrowFunded","inputs":[{"name":"escrowId","type":"uint256","indexed":true,"internalType":"uint256"},{"name":"buyer","type":"address","indexed":true,"internalType":"address"},{"name":"amount","type":"uint256","indexed":false,"internalType":"uint256"}],"anonymous":false},{"type":"event","name":"FundsReleased","inputs":[{"name":"escrowId","type":"uint256","indexed":true,"internalType":"uint256"},{"name":"seller","type":"address","indexed":true,"internalType":"address"}],"anonymous":false},{"type":"event","name":"RefundRequested","inputs":[{"name":"escrowId","type":"uint256","indexed":true,"internalType":"uint256"},{"name":"buyer","type":"address","indexed":true,"internalType":"address"}],"anonymous":false}],"bytecode":{"object":"0x6080604052348015600e575f5ffd5b506120f08061001c5f395ff3fe60806040526004361061006f575f3560e01c8063a4b2409e1161004d578063a4b2409e14610107578063b996ec2a1461012f578063c9c31af51461016b578063d27dc2db146101875761006f565b8063012f52ee1461007357806334b25ee2146100b75780634d68282f146100df575b5f5ffd5b34801561007e575f5ffd5b50610099600480360381019061009491906113a5565b6101c3565b6040516100ae999897969594939291906114a8565b60405180910390f35b3480156100c2575f5ffd5b506100dd60048036038101906100d89190611564565b610316565b005b3480156100ea575f5ffd5b50610105600480360381019061010091906113a5565b61061b565b005b348015610112575f5ffd5b5061012d600480360381019061012891906113a5565b6108a4565b005b34801561013a575f5ffd5b50610155600480360381019061015091906113a5565b610bd5565b60405161016291906116d9565b60405180910390f35b610185600480360381019061018091906113a5565b610df3565b005b348015610192575f5ffd5b506101ad60048036038101906101a8919061184f565b61103e565b6040516101ba91906118e2565b60405180910390f35b6001602052805f5260405f205f91509050805f015f9054906101000a900473ffffffffffffffffffffffffffffffffffffffff1690806001015f9054906101000a900473ffffffffffffffffffffffffffffffffffffffff1690806002015f9054906101000a900473ffffffffffffffffffffffffffffffffffffffff169080600301549080600401549080600501805461025d90611928565b80601f016020809104026020016040519081016040528092919081815260200182805461028990611928565b80156102d45780601f106102ab576101008083540402835291602001916102d4565b820191905f5260205f20905b8154815290600101906020018083116102b757829003601f168201915b505050505090806006015f9054906101000a900460ff16908060060160019054906101000a900460ff16908060060160029054906101000a900460ff16905089565b8160015f8281526020019081526020015f206002015f9054906101000a900473ffffffffffffffffffffffffffffffffffffffff1673ffffffffffffffffffffffffffffffffffffffff163373ffffffffffffffffffffffffffffffffffffffff16146103b8576040517f08c379a00000000000000000000000000000000000000000000000000000000081526004016103af906119a2565b60405180910390fd5b8260015f8281526020019081526020015f2060060160019054906101000a900460ff16158015610407575060015f8281526020019081526020015f2060060160029054906101000a900460ff16155b610446576040517f08c379a000000000000000000000000000000000000000000000000000000000815260040161043d90611a0a565b60405180910390fd5b5f60015f8681526020019081526020015f209050806006015f9054906101000a900460ff166104aa576040517f08c379a00000000000000000000000000000000000000000000000000000000081526004016104a190611a72565b60405180910390fd5b831561053d5760018160060160016101000a81548160ff021916908315150217905550806001015f9054906101000a900473ffffffffffffffffffffffffffffffffffffffff1673ffffffffffffffffffffffffffffffffffffffff166108fc826003015490811502906040515f60405180830381858888f19350505050158015610537573d5f5f3e3d5ffd5b506105c5565b60018160060160026101000a81548160ff021916908315150217905550805f015f9054906101000a900473ffffffffffffffffffffffffffffffffffffffff1673ffffffffffffffffffffffffffffffffffffffff166108fc826003015490811502906040515f60405180830381858888f193505050501580156105c3573d5f5f3e3d5ffd5b505b3373ffffffffffffffffffffffffffffffffffffffff16857fe4869990df273a675df63cd0acf961e8cac9e8c47748a9d71c02c21e510e850c8660405161060c9190611a90565b60405180910390a35050505050565b8060015f8281526020019081526020015f206001015f9054906101000a900473ffffffffffffffffffffffffffffffffffffffff1673ffffffffffffffffffffffffffffffffffffffff163373ffffffffffffffffffffffffffffffffffffffff16146106bd576040517f08c379a00000000000000000000000000000000000000000000000000000000081526004016106b490611af3565b60405180910390fd5b8160015f8281526020019081526020015f2060060160019054906101000a900460ff1615801561070c575060015f8281526020019081526020015f2060060160029054906101000a900460ff16155b61074b576040517f08c379a000000000000000000000000000000000000000000000000000000000815260040161074290611a0a565b60405180910390fd5b5f60015f8581526020019081526020015f209050806006015f9054906101000a900460ff166107af576040517f08c379a00000000000000000000000000000000000000000000000000000000081526004016107a690611a72565b60405180910390fd5b60018160060160016101000a81548160ff021916908315150217905550806001015f9054906101000a900473ffffffffffffffffffffffffffffffffffffffff1673ffffffffffffffffffffffffffffffffffffffff166108fc826003015490811502906040515f60405180830381858888f19350505050158015610836573d5f5f3e3d5ffd5b50806001015f9054906101000a900473ffffffffffffffffffffffffffffffffffffffff1673ffffffffffffffffffffffffffffffffffffffff16847f8f5073d0a7a22ba450e278541077e181af457be74bea91e61f1f99e6bb40748e60405160405180910390a350505050565b8060015f8281526020019081526020015f205f015f9054906101000a900473ffffffffffffffffffffffffffffffffffffffff1673ffffffffffffffffffffffffffffffffffffffff163373ffffffffffffffffffffffffffffffffffffffff1614610945576040517f08c379a000000000000000000000000000000000000000000000000000000000815260040161093c90611b5b565b60405180910390fd5b8160015f8281526020019081526020015f2060060160019054906101000a900460ff16158015610994575060015f8281526020019081526020015f2060060160029054906101000a900460ff16155b6109d3576040517f08c379a00000000000000000000000000000000000000000000000000000000081526004016109ca90611a0a565b60405180910390fd5b5f60015f8581526020019081526020015f209050806006015f9054906101000a900460ff16610a37576040517f08c379a0000000000000000000000000000000000000000000000000000000008152600401610a2e90611a72565b60405180910390fd5b80600401544211610a7d576040517f08c379a0000000000000000000000000000000000000000000000000000000008152600401610a7490611bc3565b60405180910390fd5b60018160060160026101000a81548160ff0219169083151502179055505f815f015f9054906101000a900473ffffffffffffffffffffffffffffffffffffffff1673ffffffffffffffffffffffffffffffffffffffff168260030154604051610ae590611c0e565b5f6040518083038185875af1925050503d805f8114610b1f576040519150601f19603f3d011682016040523d82523d5f602084013e610b24565b606091505b5050905080610b68576040517f08c379a0000000000000000000000000000000000000000000000000000000008152600401610b5f90611c6c565b60405180910390fd5b815f015f9054906101000a900473ffffffffffffffffffffffffffffffffffffffff1673ffffffffffffffffffffffffffffffffffffffff16857fd8420f97dab0b820e066ebfad617848c1eab2d260922358cc1d5cdcdc568d57260405160405180910390a35050505050565b610bdd6112d5565b60015f8381526020019081526020015f20604051806101200160405290815f82015f9054906101000a900473ffffffffffffffffffffffffffffffffffffffff1673ffffffffffffffffffffffffffffffffffffffff1673ffffffffffffffffffffffffffffffffffffffff168152602001600182015f9054906101000a900473ffffffffffffffffffffffffffffffffffffffff1673ffffffffffffffffffffffffffffffffffffffff1673ffffffffffffffffffffffffffffffffffffffff168152602001600282015f9054906101000a900473ffffffffffffffffffffffffffffffffffffffff1673ffffffffffffffffffffffffffffffffffffffff1673ffffffffffffffffffffffffffffffffffffffff1681526020016003820154815260200160048201548152602001600582018054610d1c90611928565b80601f0160208091040260200160405190810160405280929190818152602001828054610d4890611928565b8015610d935780601f10610d6a57610100808354040283529160200191610d93565b820191905f5260205f20905b815481529060010190602001808311610d7657829003601f168201915b50505050508152602001600682015f9054906101000a900460ff161515151581526020016006820160019054906101000a900460ff161515151581526020016006820160029054906101000a900460ff1615151515815250509050919050565b8060015f8281526020019081526020015f205f015f9054906101000a900473ffffffffffffffffffffffffffffffffffffffff1673ffffffffffffffffffffffffffffffffffffffff163373ffffffffffffffffffffffffffffffffffffffff1614610e94576040517f08c379a0000000000000000000000000000000000000000000000000000000008152600401610e8b90611b5b565b60405180910390fd5b8160015f8281526020019081526020015f2060060160019054906101000a900460ff16158015610ee3575060015f8281526020019081526020015f2060060160029054906101000a900460ff16155b610f22576040517f08c379a0000000000000000000000000000000000000000000000000000000008152600401610f1990611a0a565b60405180910390fd5b5f60015f8581526020019081526020015f209050806006015f9054906101000a900460ff1615610f87576040517f08c379a0000000000000000000000000000000000000000000000000000000008152600401610f7e90611cd4565b60405180910390fd5b80600301543414610fcd576040517f08c379a0000000000000000000000000000000000000000000000000000000008152600401610fc490611d3c565b60405180910390fd5b6001816006015f6101000a81548160ff0219169083151502179055503373ffffffffffffffffffffffffffffffffffffffff16847f4a2cd88ec7a748d5b20b3512d7249c67745777b219009075c745923684e9653d3460405161103091906118e2565b60405180910390a350505050565b5f5f5f815461104c90611d87565b91905081905590506040518061012001604052803373ffffffffffffffffffffffffffffffffffffffff1681526020018773ffffffffffffffffffffffffffffffffffffffff1681526020018673ffffffffffffffffffffffffffffffffffffffff16815260200185815260200184426110c69190611dce565b81526020018381526020015f151581526020015f151581526020015f151581525060015f8381526020019081526020015f205f820151815f015f6101000a81548173ffffffffffffffffffffffffffffffffffffffff021916908373ffffffffffffffffffffffffffffffffffffffff1602179055506020820151816001015f6101000a81548173ffffffffffffffffffffffffffffffffffffffff021916908373ffffffffffffffffffffffffffffffffffffffff1602179055506040820151816002015f6101000a81548173ffffffffffffffffffffffffffffffffffffffff021916908373ffffffffffffffffffffffffffffffffffffffff160217905550606082015181600301556080820151816004015560a08201518160050190816111f19190611fa1565b5060c0820151816006015f6101000a81548160ff02191690831515021790555060e08201518160060160016101000a81548160ff0219169083151502179055506101008201518160060160026101000a81548160ff0219169083151502179055509050508573ffffffffffffffffffffffffffffffffffffffff163373ffffffffffffffffffffffffffffffffffffffff16827feaf6235a093c2a0df0df23635239c3cc0fe1b498341a5de78de8180953fb0219888888426112b39190611dce565b886040516112c49493929190612070565b60405180910390a495945050505050565b6040518061012001604052805f73ffffffffffffffffffffffffffffffffffffffff1681526020015f73ffffffffffffffffffffffffffffffffffffffff1681526020015f73ffffffffffffffffffffffffffffffffffffffff1681526020015f81526020015f8152602001606081526020015f151581526020015f151581526020015f151581525090565b5f604051905090565b5f5ffd5b5f5ffd5b5f819050919050565b61138481611372565b811461138e575f5ffd5b50565b5f8135905061139f8161137b565b92915050565b5f602082840312156113ba576113b961136a565b5b5f6113c784828501611391565b91505092915050565b5f73ffffffffffffffffffffffffffffffffffffffff82169050919050565b5f6113f9826113d0565b9050919050565b611409816113ef565b82525050565b61141881611372565b82525050565b5f81519050919050565b5f82825260208201905092915050565b8281835e5f83830152505050565b5f601f19601f8301169050919050565b5f6114608261141e565b61146a8185611428565b935061147a818560208601611438565b61148381611446565b840191505092915050565b5f8115159050919050565b6114a28161148e565b82525050565b5f610120820190506114bc5f83018c611400565b6114c9602083018b611400565b6114d6604083018a611400565b6114e3606083018961140f565b6114f0608083018861140f565b81810360a08301526115028187611456565b905061151160c0830186611499565b61151e60e0830185611499565b61152c610100830184611499565b9a9950505050505050505050565b6115438161148e565b811461154d575f5ffd5b50565b5f8135905061155e8161153a565b92915050565b5f5f6040838503121561157a5761157961136a565b5b5f61158785828601611391565b925050602061159885828601611550565b9150509250929050565b6115ab816113ef565b82525050565b6115ba81611372565b82525050565b5f82825260208201905092915050565b5f6115da8261141e565b6115e481856115c0565b93506115f4818560208601611438565b6115fd81611446565b840191505092915050565b6116118161148e565b82525050565b5f61012083015f83015161162d5f8601826115a2565b50602083015161164060208601826115a2565b50604083015161165360408601826115a2565b50606083015161166660608601826115b1565b50608083015161167960808601826115b1565b5060a083015184820360a086015261169182826115d0565b91505060c08301516116a660c0860182611608565b5060e08301516116b960e0860182611608565b506101008301516116ce610100860182611608565b508091505092915050565b5f6020820190508181035f8301526116f18184611617565b905092915050565b611702816113ef565b811461170c575f5ffd5b50565b5f8135905061171d816116f9565b92915050565b5f5ffd5b5f5ffd5b7f4e487b71000000000000000000000000000000000000000000000000000000005f52604160045260245ffd5b61176182611446565b810181811067ffffffffffffffff821117156117805761177f61172b565b5b80604052505050565b5f611792611361565b905061179e8282611758565b919050565b5f67ffffffffffffffff8211156117bd576117bc61172b565b5b6117c682611446565b9050602081019050919050565b828183375f83830152505050565b5f6117f36117ee846117a3565b611789565b90508281526020810184848401111561180f5761180e611727565b5b61181a8482856117d3565b509392505050565b5f82601f83011261183657611835611723565b5b81356118468482602086016117e1565b91505092915050565b5f5f5f5f5f60a086880312156118685761186761136a565b5b5f6118758882890161170f565b95505060206118868882890161170f565b945050604061189788828901611391565b93505060606118a888828901611391565b925050608086013567ffffffffffffffff8111156118c9576118c861136e565b5b6118d588828901611822565b9150509295509295909350565b5f6020820190506118f55f83018461140f565b92915050565b7f4e487b71000000000000000000000000000000000000000000000000000000005f52602260045260245ffd5b5f600282049050600182168061193f57607f821691505b602082108103611952576119516118fb565b5b50919050565b7f4f6e6c79206172626974657220616c6c6f7765640000000000000000000000005f82015250565b5f61198c601483611428565b915061199782611958565b602082019050919050565b5f6020820190508181035f8301526119b981611980565b9050919050565b7f457363726f7720636f6d706c65746564000000000000000000000000000000005f82015250565b5f6119f4601083611428565b91506119ff826119c0565b602082019050919050565b5f6020820190508181035f830152611a21816119e8565b9050919050565b7f4e6f742066756e646564000000000000000000000000000000000000000000005f82015250565b5f611a5c600a83611428565b9150611a6782611a28565b602082019050919050565b5f6020820190508181035f830152611a8981611a50565b9050919050565b5f602082019050611aa35f830184611499565b92915050565b7f4f6e6c792073656c6c657220616c6c6f776564000000000000000000000000005f82015250565b5f611add601383611428565b9150611ae882611aa9565b602082019050919050565b5f6020820190508181035f830152611b0a81611ad1565b9050919050565b7f4f6e6c7920627579657220616c6c6f77656400000000000000000000000000005f82015250565b5f611b45601283611428565b9150611b5082611b11565b602082019050919050565b5f6020820190508181035f830152611b7281611b39565b9050919050565b7f446561646c696e65206e6f7420706173736564000000000000000000000000005f82015250565b5f611bad601383611428565b9150611bb882611b79565b602082019050919050565b5f6020820190508181035f830152611bda81611ba1565b9050919050565b5f81905092915050565b50565b5f611bf95f83611be1565b9150611c0482611beb565b5f82019050919050565b5f611c1882611bee565b9150819050919050565b7f5472616e73666572206661696c656400000000000000000000000000000000005f82015250565b5f611c56600f83611428565b9150611c6182611c22565b602082019050919050565b5f6020820190508181035f830152611c8381611c4a565b9050919050565b7f416c72656164792066756e6465640000000000000000000000000000000000005f82015250565b5f611cbe600e83611428565b9150611cc982611c8a565b602082019050919050565b5f6020820190508181035f830152611ceb81611cb2565b9050919050565b7f496e636f727265637420616d6f756e74000000000000000000000000000000005f82015250565b5f611d26601083611428565b9150611d3182611cf2565b602082019050919050565b5f6020820190508181035f830152611d5381611d1a565b9050919050565b7f4e487b71000000000000000000000000000000000000000000000000000000005f52601160045260245ffd5b5f611d9182611372565b91507fffffffffffffffffffffffffffffffffffffffffffffffffffffffffffffffff8203611dc357611dc2611d5a565b5b600182019050919050565b5f611dd882611372565b9150611de383611372565b9250828201905080821115611dfb57611dfa611d5a565b5b92915050565b5f819050815f5260205f209050919050565b5f6020601f8301049050919050565b5f82821b905092915050565b5f60088302611e5d7fffffffffffffffffffffffffffffffffffffffffffffffffffffffffffffffff82611e22565b611e678683611e22565b95508019841693508086168417925050509392505050565b5f819050919050565b5f611ea2611e9d611e9884611372565b611e7f565b611372565b9050919050565b5f819050919050565b611ebb83611e88565b611ecf611ec782611ea9565b848454611e2e565b825550505050565b5f5f905090565b611ee6611ed7565b611ef1818484611eb2565b505050565b5b81811015611f1457611f095f82611ede565b600181019050611ef7565b5050565b601f821115611f5957611f2a81611e01565b611f3384611e13565b81016020851015611f42578190505b611f56611f4e85611e13565b830182611ef6565b50505b505050565b5f82821c905092915050565b5f611f795f1984600802611f5e565b1980831691505092915050565b5f611f918383611f6a565b9150826002028217905092915050565b611faa8261141e565b67ffffffffffffffff811115611fc357611fc261172b565b5b611fcd8254611928565b611fd8828285611f18565b5f60209050601f831160018114612009575f8415611ff7578287015190505b6120018582611f86565b865550612068565b601f19841661201786611e01565b5f5b8281101561203e57848901518255600182019150602085019450602081019050612019565b8683101561205b5784890151612057601f891682611f6a565b8355505b6001600288020188555050505b505050505050565b5f6080820190506120835f830187611400565b612090602083018661140f565b61209d604083018561140f565b81810360608301526120af8184611456565b90509594505050505056fea2646970667358221220b906e548f6c3825386a72fa590640cca0a3db644b84d8b893092d225ac92534264736f6c634300081c0033","linkReferences":{}},"methodIdentifiers":{"createEscrow(address,address,uint256,uint256,string)":"d27dc2db","escrows(uint256)":"012f52ee","fundEscrow(uint256)":"c9c31af5","getEscrowDetails(uint256)":"b996ec2a","releaseFunds(uint256)":"4d68282f","requestRefund(uint256)":"a4b2409e","resolveDispute(uint256,bool)":"34b25ee2"},"id":19}