{"abi":[{"type":"constructor","inputs":[],"stateMutability":"nonpayable"},{"type":"function","name":"createEscrow","inputs":[{"name":"seller","type":"address","internalType":"address"},{"name":"arbiter","type":"address","internalType":"address"},{"name":"amount","type":"uint256","internalType":"uint256"},{"name":"deadline","type":"uint256","internalType":"uint256"},{"name":"description","type":"string","internalType":"string"}],"outputs":[{"name":"escrowId","type":"uint256","internalType":"uint256"}],"stateMutability":"nonpayable"},{"type":"function","name":"escrows","inputs":[{"name":"","type":"uint256","internalType":"uint256"}],"outputs":[{"name":"buyer","type":"address","internalType":"address"},{"name":"seller","type":"address","internalType":"address"},{"name":"arbiter","type":"address","internalType":"address"},{"name":"amount","type":"uint256","internalType":"uint256"},{"name":"deadline","type":"uint256","internalType":"uint256"},{"name":"description","type":"string","internalType":"string"},{"name":"funded","type":"bool","internalType":"bool"},{"name":"released","type":"bool","internalType":"bool"},{"name":"refunded","type":"bool","internalType":"bool"}],"stateMutability":"view"},{"type":"function","name":"fundEscrow","inputs":[{"name":"escrowId","type":"uint256","internalType":"uint256"}],"outputs":[],"stateMutability":"payable"},{"type":"function","name":"getEscrowDetails","inputs":[{"name":"escrowId","type":"uint256","internalType":"uint256"}],"outputs":[{"name":"","type":"tuple","internalType":"struct DecentralizedEscrow.EscrowDetails","components":[{"name":"buyer","type":"address","internalType":"address"},{"name":"seller","type":"address","internalType":"address"},{"name":"arbiter","type":"address","internalType":"address"},{"name":"amount","type":"uint256","internalType":"uint256"},{"name":"deadline","type":"uint256","internalType":"uint256"},{"name":"description","type":"string","internalType":"string"},{"name":"funded","type":"bool","internalType":"bool"},{"name":"released","type":"bool","internalType":"bool"},{"name":"refunded","type":"bool","internalType":"bool"}]}],"stateMutability":"view"},{"type":"function","name":"owner","inputs":[],"outputs":[{"name":"","type":"address","internalType":"address"}],"stateMutability":"view"},{"type":"function","name":"pause","inputs":[],"outputs":[],"stateMutability":"nonpayable"},{"type":"function","name":"paused","inputs":[],"outputs":[{"name":"","type":"bool","internalType":"bool"}],"stateMutability":"view"},{"type":"function","name":"releaseFunds","inputs":[{"name":"escrowId","type":"uint256","internalType":"uint256"}],"outputs":[],"stateMutability":"nonpayable"},{"type":"function","name":"requestRefund","inputs":[{"name":"escrowId","type":"uint256","internalType":"uint256"}],"outputs":[],"stateMutability":"nonpayable"},{"type":"function","name":"resolveDispute","inputs":[{"name":"escrowId","type":"uint256","internalType":"uint256"},{"name":"releaseFundsToSeller","type":"bool","internalType":"bool"}],"outputs":[],"stateMutability":"nonpayable"},{"type":"function","name":"unpause","inputs":[],"outputs":[],"stateMutability":"nonpayable"},{"type":"event","name":"DisputeResolved","inputs":[{"name":"escrowId","type":"uint256","indexed":true,"internalType":"uint256"},{"name":"fundsReleased","type":"bool","indexed":false,"internalType":"bool"},{"name":"byArbiter","type":"address","indexed":true,"internalType":"address"}],"anonymous":false},{"type":"event","name":"EscrowCreated","inputs":[{"name":"escrowId","type":"uint256","indexed":true,"internalType":"uint256"},{"name":"buyer","type":"address","indexed":true,"internalType":"address"},{"name":"seller","type":"address","indexed":true,"internalType":"address"},{"name":"arbiter","type":"address","indexed":false,"internalType":"address"},{"name":"amount","type":"uint256","indexed":false,"internalType":"uint256"},{"name":"deadline","type":"uint256","indexed":false,"internalType":"uint256"},{"name":"description","type":"string","indexed":false,"internalType":"string"}],"anonymous":false},{"type":"event","name":"EscrowFunded","inputs":[{"name":"escrowId","type":"uint256","indexed":true,"internalType":"uint256"},{"name":"buyer","type":"address","indexed":true,"internalType":"address"},{"name":"amount","type":"uint256","indexed":false,"internalType":"uint256"}],"anonymous":false},{"type":"event","name":"FundsReleased","inputs":[{"name":"escrowId","type":"uint256","indexed":true,"internalType":"uint256"},{"name":"seller","type":"address","indexed":true,"internalType":"address"}],"anonymous":false},{"type":"event","name":"Paused","inputs":[],"anonymous":false},{"type":"event","name":"RefundRequested","inputs":[{"name":"escrowId","type":"uint256","indexed":true,"internalType":"uint256"},{"name":"buyer","type":"address","indexed":true,"internalType":"address"}],"anonymous":false},{"type":"event","name":"Unpaused","inputs":[],"anonymous":false}],"bytecode":{"object":"0x6080604052348015600e575f5ffd5b503360015f6101000a81548173ffffffffffffffffffffffffffffffffffffffff021916908373ffffffffffffffffffffffffffffffffffffffff1602179055506125fb8061005c5f395ff3fe60806040526004361061009b575f3560e01c80638456cb59116100635780638456cb59146101735780638da5cb5b14610189578063a4b2409e146101b3578063b996ec2a146101db578063c9c31af514610217578063d27dc2db146102335761009b565b8063012f52ee1461009f57806334b25ee2146100e35780633f4ba83a1461010b5780634d68282f146101215780635c975abb14610149575b5f5ffd5b3480156100aa575f5ffd5b506100c560048036038101906100c091906117c7565b61026f565b6040516100da999897969594939291906118ca565b60405180910390f35b3480156100ee575f5ffd5b5061010960048036038101906101049190611986565b6103c2565b005b348015610116575f5ffd5b5061011f610717565b005b34801561012c575f5ffd5b50610147600480360381019061014291906117c7565b6107ee565b005b348015610154575f5ffd5b5061015d610ac7565b60405161016a91906119c4565b60405180910390f35b34801561017e575f5ffd5b50610187610ada565b005b348015610194575f5ffd5b5061019d610bb1565b6040516101aa91906119dd565b60405180910390f35b3480156101be575f5ffd5b506101d960048036038101906101d491906117c7565b610bd6565b005b3480156101e6575f5ffd5b5061020160048036038101906101fc91906117c7565b610f57565b60405161020e9190611b2d565b60405180910390f35b610231600480360381019061022c91906117c7565b611175565b005b34801561023e575f5ffd5b5061025960048036038101906102549190611ca3565b611410565b6040516102669190611d36565b60405180910390f35b6002602052805f5260405f205f91509050805f015f9054906101000a900473ffffffffffffffffffffffffffffffffffffffff1690806001015f9054906101000a900473ffffffffffffffffffffffffffffffffffffffff1690806002015f9054906101000a900473ffffffffffffffffffffffffffffffffffffffff169080600301549080600401549080600501805461030990611d7c565b80601f016020809104026020016040519081016040528092919081815260200182805461033590611d7c565b80156103805780601f1061035757610100808354040283529160200191610380565b820191905f5260205f20905b81548152906001019060200180831161036357829003601f168201915b505050505090806006015f9054906101000a900460ff16908060060160019054906101000a900460ff16908060060160029054906101000a900460ff16905089565b8160025f8281526020019081526020015f206002015f9054906101000a900473ffffffffffffffffffffffffffffffffffffffff1673ffffffffffffffffffffffffffffffffffffffff163373ffffffffffffffffffffffffffffffffffffffff1614610464576040517f08c379a000000000000000000000000000000000000000000000000000000000815260040161045b90611df6565b60405180910390fd5b8260025f8281526020019081526020015f2060060160019054906101000a900460ff161580156104b3575060025f8281526020019081526020015f2060060160029054906101000a900460ff16155b6104f2576040517f08c379a00000000000000000000000000000000000000000000000000000000081526004016104e990611e5e565b60405180910390fd5b600160149054906101000a900460ff1615610542576040517f08c379a000000000000000000000000000000000000000000000000000000000815260040161053990611ec6565b60405180910390fd5b5f60025f8681526020019081526020015f209050806006015f9054906101000a900460ff166105a6576040517f08c379a000000000000000000000000000000000000000000000000000000000815260040161059d90611f2e565b60405180910390fd5b83156106395760018160060160016101000a81548160ff021916908315150217905550806001015f9054906101000a900473ffffffffffffffffffffffffffffffffffffffff1673ffffffffffffffffffffffffffffffffffffffff166108fc826003015490811502906040515f60405180830381858888f19350505050158015610633573d5f5f3e3d5ffd5b506106c1565b60018160060160026101000a81548160ff021916908315150217905550805f015f9054906101000a900473ffffffffffffffffffffffffffffffffffffffff1673ffffffffffffffffffffffffffffffffffffffff166108fc826003015490811502906040515f60405180830381858888f193505050501580156106bf573d5f5f3e3d5ffd5b505b3373ffffffffffffffffffffffffffffffffffffffff16857fe4869990df273a675df63cd0acf961e8cac9e8c47748a9d71c02c21e510e850c8660405161070891906119c4565b60405180910390a35050505050565b60015f9054906101000a900473ffffffffffffffffffffffffffffffffffffffff1673ffffffffffffffffffffffffffffffffffffffff163373ffffffffffffffffffffffffffffffffffffffff16146107a6576040517f08c379a000000000000000000000000000000000000000000000000000000000815260040161079d90611f96565b60405180910390fd5b5f600160146101000a81548160ff0219169083151502179055507fa45f47fdea8a1efdd9029a5691c7f759c32b7c698632b563573e155625d1693360405160405180910390a1565b8060025f8281526020019081526020015f206001015f9054906101000a900473ffffffffffffffffffffffffffffffffffffffff1673ffffffffffffffffffffffffffffffffffffffff163373ffffffffffffffffffffffffffffffffffffffff1614610890576040517f08c379a000000000000000000000000000000000000000000000000000000000815260040161088790611ffe565b60405180910390fd5b8160025f8281526020019081526020015f2060060160019054906101000a900460ff161580156108df575060025f8281526020019081526020015f2060060160029054906101000a900460ff16155b61091e576040517f08c379a000000000000000000000000000000000000000000000000000000000815260040161091590611e5e565b60405180910390fd5b600160149054906101000a900460ff161561096e576040517f08c379a000000000000000000000000000000000000000000000000000000000815260040161096590611ec6565b60405180910390fd5b5f60025f8581526020019081526020015f209050806006015f9054906101000a900460ff166109d2576040517f08c379a00000000000000000000000000000000000000000000000000000000081526004016109c990611f2e565b60405180910390fd5b60018160060160016101000a81548160ff021916908315150217905550806001015f9054906101000a900473ffffffffffffffffffffffffffffffffffffffff1673ffffffffffffffffffffffffffffffffffffffff166108fc826003015490811502906040515f60405180830381858888f19350505050158015610a59573d5f5f3e3d5ffd5b50806001015f9054906101000a900473ffffffffffffffffffffffffffffffffffffffff1673ffffffffffffffffffffffffffffffffffffffff16847f8f5073d0a7a22ba450e278541077e181af457be74bea91e61f1f99e6bb40748e60405160405180910390a350505050565b600160149054906101000a900460ff1681565b60015f9054906101000a900473ffffffffffffffffffffffffffffffffffffffff1673ffffffffffffffffffffffffffffffffffffffff163373ffffffffffffffffffffffffffffffffffffffff1614610b69576040517f08c379a0000000000000000000000000000000000000000000000000000000008152600401610b6090611f96565b60405180910390fd5b60018060146101000a81548160ff0219169083151502179055507f9e87fac88ff661f02d44f95383c817fece4bce600a3dab7a54406878b965e75260405160405180910390a1565b60015f9054906101000a900473ffffffffffffffffffffffffffffffffffffffff1681565b8060025f8281526020019081526020015f205f015f9054906101000a900473ffffffffffffffffffffffffffffffffffffffff1673ffffffffffffffffffffffffffffffffffffffff163373ffffffffffffffffffffffffffffffffffffffff1614610c77576040517f08c379a0000000000000000000000000000000000000000000000000000000008152600401610c6e90612066565b60405180910390fd5b8160025f8281526020019081526020015f2060060160019054906101000a900460ff16158015610cc6575060025f8281526020019081526020015f2060060160029054906101000a900460ff16155b610d05576040517f08c379a0000000000000000000000000000000000000000000000000000000008152600401610cfc90611e5e565b60405180910390fd5b600160149054906101000a900460ff1615610d55576040517f08c379a0000000000000000000000000000000000000000000000000000000008152600401610d4c90611ec6565b60405180910390fd5b5f60025f8581526020019081526020015f209050806006015f9054906101000a900460ff16610db9576040517f08c379a0000000000000000000000000000000000000000000000000000000008152600401610db090611f2e565b60405180910390fd5b80600401544211610dff576040517f08c379a0000000000000000000000000000000000000000000000000000000008152600401610df6906120ce565b60405180910390fd5b60018160060160026101000a81548160ff0219169083151502179055505f815f015f9054906101000a900473ffffffffffffffffffffffffffffffffffffffff1673ffffffffffffffffffffffffffffffffffffffff168260030154604051610e6790612119565b5f6040518083038185875af1925050503d805f8114610ea1576040519150601f19603f3d011682016040523d82523d5f602084013e610ea6565b606091505b5050905080610eea576040517f08c379a0000000000000000000000000000000000000000000000000000000008152600401610ee190612177565b60405180910390fd5b815f015f9054906101000a900473ffffffffffffffffffffffffffffffffffffffff1673ffffffffffffffffffffffffffffffffffffffff16857fd8420f97dab0b820e066ebfad617848c1eab2d260922358cc1d5cdcdc568d57260405160405180910390a35050505050565b610f5f6116f7565b60025f8381526020019081526020015f20604051806101200160405290815f82015f9054906101000a900473ffffffffffffffffffffffffffffffffffffffff1673ffffffffffffffffffffffffffffffffffffffff1673ffffffffffffffffffffffffffffffffffffffff168152602001600182015f9054906101000a900473ffffffffffffffffffffffffffffffffffffffff1673ffffffffffffffffffffffffffffffffffffffff1673ffffffffffffffffffffffffffffffffffffffff168152602001600282015f9054906101000a900473ffffffffffffffffffffffffffffffffffffffff1673ffffffffffffffffffffffffffffffffffffffff1673ffffffffffffffffffffffffffffffffffffffff168152602001600382015481526020016004820154815260200160058201805461109e90611d7c565b80601f01602080910402602001604051908101604052809291908181526020018280546110ca90611d7c565b80156111155780601f106110ec57610100808354040283529160200191611115565b820191905f5260205f20905b8154815290600101906020018083116110f857829003601f168201915b50505050508152602001600682015f9054906101000a900460ff161515151581526020016006820160019054906101000a900460ff161515151581526020016006820160029054906101000a900460ff1615151515815250509050919050565b8060025f8281526020019081526020015f205f015f9054906101000a900473ffffffffffffffffffffffffffffffffffffffff1673ffffffffffffffffffffffffffffffffffffffff163373ffffffffffffffffffffffffffffffffffffffff1614611216576040517f08c379a000000000000000000000000000000000000000000000000000000000815260040161120d90612066565b60405180910390fd5b8160025f8281526020019081526020015f2060060160019054906101000a900460ff16158015611265575060025f8281526020019081526020015f2060060160029054906101000a900460ff16155b6112a4576040517f08c379a000000000000000000000000000000000000000000000000000000000815260040161129b90611e5e565b60405180910390fd5b600160149054906101000a900460ff16156112f4576040517f08c379a00000000000000000000000000000000000000000000000000000000081526004016112eb90611ec6565b60405180910390fd5b5f60025f8581526020019081526020015f209050806006015f9054906101000a900460ff1615611359576040517f08c379a0000000000000000000000000000000000000000000000000000000008152600401611350906121df565b60405180910390fd5b8060030154341461139f576040517f08c379a000000000000000000000000000000000000000000000000000000000815260040161139690612247565b60405180910390fd5b6001816006015f6101000a81548160ff0219169083151502179055503373ffffffffffffffffffffffffffffffffffffffff16847f4a2cd88ec7a748d5b20b3512d7249c67745777b219009075c745923684e9653d346040516114029190611d36565b60405180910390a350505050565b5f600160149054906101000a900460ff1615611461576040517f08c379a000000000000000000000000000000000000000000000000000000000815260040161145890611ec6565b60405180910390fd5b5f5f815461146e90612292565b91905081905590506040518061012001604052803373ffffffffffffffffffffffffffffffffffffffff1681526020018773ffffffffffffffffffffffffffffffffffffffff1681526020018673ffffffffffffffffffffffffffffffffffffffff16815260200185815260200184426114e891906122d9565b81526020018381526020015f151581526020015f151581526020015f151581525060025f8381526020019081526020015f205f820151815f015f6101000a81548173ffffffffffffffffffffffffffffffffffffffff021916908373ffffffffffffffffffffffffffffffffffffffff1602179055506020820151816001015f6101000a81548173ffffffffffffffffffffffffffffffffffffffff021916908373ffffffffffffffffffffffffffffffffffffffff1602179055506040820151816002015f6101000a81548173ffffffffffffffffffffffffffffffffffffffff021916908373ffffffffffffffffffffffffffffffffffffffff160217905550606082015181600301556080820151816004015560a082015181600501908161161391906124ac565b5060c0820151816006015f6101000a81548160ff02191690831515021790555060e08201518160060160016101000a81548160ff0219169083151502179055506101008201518160060160026101000a81548160ff0219169083151502179055509050508573ffffffffffffffffffffffffffffffffffffffff163373ffffffffffffffffffffffffffffffffffffffff16827feaf6235a093c2a0df0df23635239c3cc0fe1b498341a5de78de8180953fb0219888888426116d591906122d9565b886040516116e6949392919061257b565b60405180910390a495945050505050565b6040518061012001604052805f73ffffffffffffffffffffffffffffffffffffffff1681526020015f73ffffffffffffffffffffffffffffffffffffffff1681526020015f73ffffffffffffffffffffffffffffffffffffffff1681526020015f81526020015f8152602001606081526020015f151581526020015f151581526020015f151581525090565b5f604051905090565b5f5ffd5b5f5ffd5b5f819050919050565b6117a681611794565b81146117b0575f5ffd5b50565b5f813590506117c18161179d565b92915050565b5f602082840312156117dc576117db61178c565b5b5f6117e9848285016117b3565b91505092915050565b5f73ffffffffffffffffffffffffffffffffffffffff82169050919050565b5f61181b826117f2565b9050919050565b61182b81611811565b82525050565b61183a81611794565b82525050565b5f81519050919050565b5f82825260208201905092915050565b8281835e5f83830152505050565b5f601f19601f8301169050919050565b5f61188282611840565b61188c818561184a565b935061189c81856020860161185a565b6118a581611868565b840191505092915050565b5f8115159050919050565b6118c4816118b0565b82525050565b5f610120820190506118de5f83018c611822565b6118eb602083018b611822565b6118f8604083018a611822565b6119056060830189611831565b6119126080830188611831565b81810360a08301526119248187611878565b905061193360c08301866118bb565b61194060e08301856118bb565b61194e6101008301846118bb565b9a9950505050505050505050565b611965816118b0565b811461196f575f5ffd5b50565b5f813590506119808161195c565b92915050565b5f5f6040838503121561199c5761199b61178c565b5b5f6119a9858286016117b3565b92505060206119ba85828601611972565b9150509250929050565b5f6020820190506119d75f8301846118bb565b92915050565b5f6020820190506119f05f830184611822565b92915050565b6119ff81611811565b82525050565b611a0e81611794565b82525050565b5f82825260208201905092915050565b5f611a2e82611840565b611a388185611a14565b9350611a4881856020860161185a565b611a5181611868565b840191505092915050565b611a65816118b0565b82525050565b5f61012083015f830151611a815f8601826119f6565b506020830151611a9460208601826119f6565b506040830151611aa760408601826119f6565b506060830151611aba6060860182611a05565b506080830151611acd6080860182611a05565b5060a083015184820360a0860152611ae58282611a24565b91505060c0830151611afa60c0860182611a5c565b5060e0830151611b0d60e0860182611a5c565b50610100830151611b22610100860182611a5c565b508091505092915050565b5f6020820190508181035f830152611b458184611a6b565b905092915050565b611b5681611811565b8114611b60575f5ffd5b50565b5f81359050611b7181611b4d565b92915050565b5f5ffd5b5f5ffd5b7f4e487b71000000000000000000000000000000000000000000000000000000005f52604160045260245ffd5b611bb582611868565b810181811067ffffffffffffffff82111715611bd457611bd3611b7f565b5b80604052505050565b5f611be6611783565b9050611bf28282611bac565b919050565b5f67ffffffffffffffff821115611c1157611c10611b7f565b5b611c1a82611868565b9050602081019050919050565b828183375f83830152505050565b5f611c47611c4284611bf7565b611bdd565b905082815260208101848484011115611c6357611c62611b7b565b5b611c6e848285611c27565b509392505050565b5f82601f830112611c8a57611c89611b77565b5b8135611c9a848260208601611c35565b91505092915050565b5f5f5f5f5f60a08688031215611cbc57611cbb61178c565b5b5f611cc988828901611b63565b9550506020611cda88828901611b63565b9450506040611ceb888289016117b3565b9350506060611cfc888289016117b3565b925050608086013567ffffffffffffffff811115611d1d57611d1c611790565b5b611d2988828901611c76565b9150509295509295909350565b5f602082019050611d495f830184611831565b92915050565b7f4e487b71000000000000000000000000000000000000000000000000000000005f52602260045260245ffd5b5f6002820490506001821680611d9357607f821691505b602082108103611da657611da5611d4f565b5b50919050565b7f4f6e6c79206172626974657220616c6c6f7765640000000000000000000000005f82015250565b5f611de060148361184a565b9150611deb82611dac565b602082019050919050565b5f6020820190508181035f830152611e0d81611dd4565b9050919050565b7f457363726f7720636f6d706c65746564000000000000000000000000000000005f82015250565b5f611e4860108361184a565b9150611e5382611e14565b602082019050919050565b5f6020820190508181035f830152611e7581611e3c565b9050919050565b7f436f6e74726163742069732070617573656400000000000000000000000000005f82015250565b5f611eb060128361184a565b9150611ebb82611e7c565b602082019050919050565b5f6020820190508181035f830152611edd81611ea4565b9050919050565b7f4e6f742066756e646564000000000000000000000000000000000000000000005f82015250565b5f611f18600a8361184a565b9150611f2382611ee4565b602082019050919050565b5f6020820190508181035f830152611f4581611f0c565b9050919050565b7f4f6e6c79206f776e6572000000000000000000000000000000000000000000005f82015250565b5f611f80600a8361184a565b9150611f8b82611f4c565b602082019050919050565b5f6020820190508181035f830152611fad81611f74565b9050919050565b7f4f6e6c792073656c6c657220616c6c6f776564000000000000000000000000005f82015250565b5f611fe860138361184a565b9150611ff382611fb4565b602082019050919050565b5f6020820190508181035f83015261201581611fdc565b9050919050565b7f4f6e6c7920627579657220616c6c6f77656400000000000000000000000000005f82015250565b5f61205060128361184a565b915061205b8261201c565b602082019050919050565b5f6020820190508181035f83015261207d81612044565b9050919050565b7f446561646c696e65206e6f7420706173736564000000000000000000000000005f82015250565b5f6120b860138361184a565b91506120c382612084565b602082019050919050565b5f6020820190508181035f8301526120e5816120ac565b9050919050565b5f81905092915050565b50565b5f6121045f836120ec565b915061210f826120f6565b5f82019050919050565b5f612123826120f9565b9150819050919050565b7f5472616e73666572206661696c656400000000000000000000000000000000005f82015250565b5f612161600f8361184a565b915061216c8261212d565b602082019050919050565b5f6020820190508181035f83015261218e81612155565b9050919050565b7f416c72656164792066756e6465640000000000000000000000000000000000005f82015250565b5f6121c9600e8361184a565b91506121d482612195565b602082019050919050565b5f6020820190508181035f8301526121f6816121bd565b9050919050565b7f496e636f727265637420616d6f756e74000000000000000000000000000000005f82015250565b5f61223160108361184a565b915061223c826121fd565b602082019050919050565b5f6020820190508181035f83015261225e81612225565b9050919050565b7f4e487b71000000000000000000000000000000000000000000000000000000005f52601160045260245ffd5b5f61229c82611794565b91507fffffffffffffffffffffffffffffffffffffffffffffffffffffffffffffffff82036122ce576122cd612265565b5b600182019050919050565b5f6122e382611794565b91506122ee83611794565b925082820190508082111561230657612305612265565b5b92915050565b5f819050815f5260205f209050919050565b5f6020601f8301049050919050565b5f82821b905092915050565b5f600883026123687fffffffffffffffffffffffffffffffffffffffffffffffffffffffffffffffff8261232d565b612372868361232d565b95508019841693508086168417925050509392505050565b5f819050919050565b5f6123ad6123a86123a384611794565b61238a565b611794565b9050919050565b5f819050919050565b6123c683612393565b6123da6123d2826123b4565b848454612339565b825550505050565b5f5f905090565b6123f16123e2565b6123fc8184846123bd565b505050565b5b8181101561241f576124145f826123e9565b600181019050612402565b5050565b601f821115612464576124358161230c565b61243e8461231e565b8101602085101561244d578190505b6124616124598561231e565b830182612401565b50505b505050565b5f82821c905092915050565b5f6124845f1984600802612469565b1980831691505092915050565b5f61249c8383612475565b9150826002028217905092915050565b6124b582611840565b67ffffffffffffffff8111156124ce576124cd611b7f565b5b6124d88254611d7c565b6124e3828285612423565b5f60209050601f831160018114612514575f8415612502578287015190505b61250c8582612491565b865550612573565b601f1984166125228661230c565b5f5b8281101561254957848901518255600182019150602085019450602081019050612524565b868310156125665784890151612562601f891682612475565b8355505b6001600288020188555050505b505050505050565b5f60808201905061258e5f830187611822565b61259b6020830186611831565b6125a86040830185611831565b81810360608301526125ba8184611878565b90509594505050505056fea2646970667358221220cfb2634cd5f46124d2d44343c605a2cbea2870ebcb341fe29159a8dfdd5ef8ce64736f6c634300081c0033","linkReferences":{}},"methodIdentifiers":{"createEscrow(address,address,uint256,uint256,string)":"d27dc2db","escrows(uint256)":"012f52ee","fundEscrow(uint256)":"c9c31af5","getEscrowDetails(uint256)":"b996ec2a","owner()":"8da5cb5b","pause()":"8456cb59","paused()":"5c975abb","releaseFunds(uint256)":"4d68282f","requestRefund(uint256)":"a4b2409e","resolveDispute(uint256,bool)":"34b25ee2","unpause()":"3f4ba83a"},"id":19}